:100000000A128A11FC2FFF1B0D2883137F188317F8
:100010000008840A0319FF0A080000308A00040857
:10002000840A82070034013400340A340034643412
:100030000034E8340334103427342034203420349E
:100040002034203420342034203420342034203410
:100050002034203420342034203420342034203400
:1000600020342034203420342034203420342034F0
:1000700020342034203420342034203400344134DF
:100080004434433430342034203420344134443434
:10009000433431342034203443344E345434003427
:1000A000253475346D3456340034253475340034B9
:10079200F00070088312031388000800F00070084C
:1007A200831203139300080083160313141CDA2B1D
:1007B200DB2BD52B08000A128A11D5230A128A11C3
:1007C200831203131308080000300A128A11082446
:1007D2000A128A1101300A128A1108240A128A1195
:1007E2000800F300831603138712731DF92BFA2BEB
:1007F200FE2B720894008715022C70087204940074
:100802008711730871048312031394000800F30024
:1008120083120313071373080A128A11C9230A12D7
:100822008A118312031387170B30F2006230F10032
:10083200F10B192CF20B192C0000831203138713EE
:100842000800F20083120313071772080A128A11B2
:10085200C9230A128A118312031387171A30F1006F
:10086200F10B312C000083120313871307131A3084
:10087200F100F10B3A2C00000800F5007503031D8E
:10088200432C442C4E2C74087F3EF60076080A1244
:100892008A1108240A128A115D2C02307506031D82
:1008A200532C542C5D2C7408BF3EF60076080A12B5
:1008B2008A1108240A128A110800F401F501701C39
:1008C200632C642C6A2C7208F4070318F50A730867
:1008D200F50701300310F20DF30DFF3E031D6B2CE3
:1008E20001300310F10CF00CFF3E031D722C700856
:1008F2007104031D7D2C7E2C602C7508F100740898
:10090200F0000800780879040319882C892CB82C87
:10091200FD01FD0A972C01300310F80DF90DFF3E81
:10092200031D8D2C0130FC007C08FD07F91F9A2C59
:100932009B2C8C2C79087B02031DA12C78087A024F
:10094200031CA42CA52CAB2C7808FA027908031CF2
:10095200FB03FB0201300310F90CF80CFF3E031DF0
:10096200AC2C0130FD02031DB72CB82C9B2C7B084C
:10097200F9007A08F8000800F801F901E22C780879
:100982007307F6007408F5000318F50AF81FCA2C5D
:10099200F5037508F700770883120313FF00760842
:1009A20084000A128A1103200A128A110A128A1179
:1009B20022240A128A110130F8070318F90A0030BA
:1009C200F90778087307F6007408F5000318F50AAA
:1009D200F81FEC2CF5037508F70077088312031350
:1009E200FF00760884000A128A1103200A128A1173
:1009F200003A031DFD2CFE2CC02C080083160317A1
:100A020088018901831603130711071387138501D0
:100A1200831203138501831603138601880183124F
:100A220003138601880107158316031389018312B4
:100A320003138901091489140915F001F101F20166
:100A420020300A128A11F2230A128A110A128A111A
:100A520087250A128A110A128A11E5230A128A11BB
:100A6200F401F40A01300A128A113E240A128A1190
:100A72002D30F3008030F4000A128A11BD240A12CC
:100A82008A110800F501F6017008710403194A2D54
:100A92004B2D822DF701F70A592D01300310F00D6D
:100AA200F10DFF3E031D4F2D0130F4007408F707CE
:100AB200F11F5C2D5D2D4E2D01300310F50DF60D4D
:100AC200FF3E031D5E2D71087302031D6A2D70081F
:100AD2007202031C6D2D6E2D752D7008F2027108C5
:100AE200031CF303F302751401300310F10CF00C34
:100AF200FF3E031D762D0130F702031D812D822D4D
:100B02005D2D7608F1007508F00008000230F6004D
:100B12000730F5005330F400F40B8D2DF50B8D2DBD
:100B2200F60B8D2D30300A128A1108240A128A110E
:100B32000D30F500FB30F400F40B9D2DF50B9D2DCF
:100B4200A22D30300A128A1108240A128A110330A7
:100B5200F5009730F400F40BAC2DF50BAC2DB12D54
:100B620030300A128A1108240A128A110330F50061
:100B72009730F400F40BBB2DF50BBB2DC02D383094
:100B82000A128A1108240A128A1108300A128A11DA
:100B920008240A128A1101300A128A1108240A1240
:100BA2008A1106300A128A1108240A128A110C309C
:100BB2000A128A1108240A128A11080083120313E6
:100BC200AB002130A7008B2E25302C060319EA2D0D
:100BD200EB2DF52D2B0884002C08831380000130A7
:100BE200A3002308AB078B2EA601FC2DC030A30067
:100BF2002308A604162E0130A007FF302007840028
:100C02000A128A110D200A128A11AC00A300A40153
:100C12002408003A03190E2E8B2E2308003A0319DA
:100C22009B2E753A0319F72D8B2E27088400831308
:100C32000008A800840A0008A9000230A3002308C3
:100C4200A707AC01AC0A2C08A3002307013E8400CD
:100C52000A128A110D200A128A11A4000A128A119C
:100C62000D200A128A11A50025082902031D3B2E18
:100C72002408280203183E2E3F2E402E4A2E013011
:100C8200A3002308AC0705302C06031D492E4A2E6B
:100C9200242E2C08AA00822E0A30F8000030F90017
:100CA2002A08A3002307013E84000A128A110D209C
:100CB2000A128A11F0000A128A110D200A128A11F0
:100CC200F1002908F3002808F2000A128A114325CC
:100CD2000A128A117108FB007008FA000A128A11BE
:100CE20083240A128A117808303E83120313AC005F
:100CF2002B0884002C08831380000130A3002308F2
:100D0200AB07FF30A3002308AA072A0A031D8A2E75
:100D12008B2E4D2E0130A007FF30200784000A12CF
:100D22008A110D200A128A11AC002C08031D9A2E7A
:100D32009B2EE52D2B0884008313800108000A12E4
:100D42008A11FF240A128A118312031309101A301E
:100D520083120313AE00F730AD00AD0BAE2EAE0B17
:100D6200AE2EB32E01300A128A11CF230A128A1133
:100D7200413083120313AD00AD0BBD2EC02E0A12FB
:100D82008A11DC230A128A1183120313AD00AE0109
:100D92002D08F0002E08F1001330F2000030F300AD
:100DA2000A128A115E240A128A1171088316031329
:100DB200E7007008E600413083120313AD00AD0B6B
:100DC200E02EE32E00300A128A11CF230A128A1172
:100DD200413083120313AD00AD0BED2EF02E0A123B
:100DE2008A11DC230A128A1183160313EA001A30CD
:100DF20083120313AE00F730AD00AD0BFE2EAE0B27
:100E0200FE2E032F83120313091489101A30831242
:100E12000313AE00F730AD00AD0B0D2FAE0B0D2F4F
:100E2200122F00300A128A11CF230A128A110A12D3
:100E32008A11DC230A128A1183120313AD00AE0158
:100E42002D08F0002E08F1001330F2000030F300FC
:100E52000A128A115E240A128A1171088316031378
:100E6200E9007008E8001A3083120313AE00F7306D
:100E7200AD00AD0B3A2FAE0B3A2F3F2F8312031367
:100E82008914033083120313AE009730AD00AD0B0B
:100E9200482FAE0B482F3E3083120313A000831657
:100EA2000313670883120313A20083160313660851
:100EB20083120313A100D2300A128A11DF250A120B
:100EC2008A113E3083120313A000831603136908AC
:100ED20083120313A20083160313680883120313F9
:100EE200A100DC300A128A11DF250A128A1143306E
:100EF20083120313A000831603136A0883120313D9
:100F0200AD00AE012D08A1002E08A200A0300A12E9
:100F12008A11DF250A128A11F401F40A02300A1238
:100F22008A113E240A128A11053083120313AD007E
:100F3200AD0B992F9C2F0B30F3008030F4000A1276
:100F42008A11BD240A128A11F401F40A02300A122B
:100F52008A113E240A128A11053083120313AD004E
:100F6200AD0BB12FB42FD230F3000030F4000A12CF
:100F72008A11BD240A128A110830F40002300A12C2
:100F82008A113E240A128A11053083120313AD001E
:100F9200AD0BC92FCC2FDC30F3000030F4000A1265
:100FA2008A11BD240A128A110E30F40002300A128C
:100FB2008A113E240A128A11053083120313AD00EE
:100FC200AD0BE12FE42FA030F3000030F4000A1241
:100FD2008A11BD240A128A111A3083120313AE0039
:100FE200F730AD00AD0BF32FAE0BF32FF82FA52E7C
:0E0FF2000A128A11002883010A128A11A02E09
:08400000FF3FFF3FFF3FFF3FC0
:04400E00D620FF3F7A
:00000001FF
