:060000000A128A11FC2F18
:100E6400F000700883120313930008008316031321
:100E7400141C3D2F3E2F382F08000A128A113827E0
:100E84000A128A118312031313080800F30083164D
:100E940003138712731D4F2F502F542F7208940081
:100EA4008715582F70087204940087117308710411
:100EB4008312031394000800831603178801890121
:100EC4008316031307118501831203138501831607
:100ED4000313860188018312031386018801071511
:100EE40083160313890183120313890109148914D6
:100EF4000915F001F101F20120300A128A11482784
:100F04000A128A1108000A128A115E270A128A112B
:100F14008312031309101A30F500F830F400F40BAF
:100F2400912FF50B912F000000300A128A113227FD
:100F34000A128A110A128A113F270A128A1183128D
:100F4400031385001A30F500F830F400F40BA82FD1
:100F5400F50BA82F000083120313091489101A300B
:100F6400F500F830F400F40BB52FF50BB52F0000A5
:100F740000300A128A1132270A128A110A128A11BF
:100F84003F270A128A118312031386001A30F500D0
:100F9400F830F400F40BCC2FF50BCC2F00008312A7
:100FA4000313891409111A30F500F830F400F40B16
:100FB400D92FF50BD92F000000300A128A113227DD
:100FC4000A128A110A128A113F270A128A118312FD
:100FD400031388001A30F500F830F400F40BF02FF6
:100FE400F50BF02F00008312031309158A2F0A1240
:0C0FF4008A11002883010A128A11852F3F
:08400000FF3FFF3FFF3FFF3FC0
:04400E00D620FF3F7A
:00000001FF
