:060000000A128A110C280F
:10000800FE00030EF1000A08F2000A128A113A29CA
:100018000A128A110F28F90183010A128A110D297F
:100028007728831603170814831603130514A828C2
:10003800831603178814831603138514A8288316B8
:1000480003170815831603130515A8288316031725
:100058008815831603138515A82883160317081611
:10006800831603138516A828831603178816831684
:1000780003130914A82883160317081783160313F4
:100088008914A828831603178817831603130915DC
:10009800A828831603170914831603130615A8281E
:1000A800831603178914831603138615A828831645
:1000B80003170915831603138614A8288316031734
:1000C8008915831603130616A8288316031709161D
:1000D800831603130614A828831603178916831694
:1000E80003138616A8287408003A03197C28A82840
:1000F8007308003A03191528013A03191C28033A12
:1001080003192328013A03192A28073A0319312821
:10011800013A03193828033A03193F28013A031909
:1001280046280F3A03194D28013A03195428033A6F
:1001380003195B28013A03196228073A0319692849
:10014800013A03197028A8280800831603178801A4
:10015800890183160313860188018312031386011C
:1001680088018B170B178C11831603138C158516B2
:10017800F301F401F50124300A128A1124210A122C
:100188008A114230F700F70BC728000000300A1226
:100198008A11E3200A128A114230F700F70BD2289D
:1001A800000001308316031389000530F300003086
:1001B800F4000A128A1114200A128A110800F400A5
:1001C8007403031DE828E928EF288B170B178316FB
:1001D80003130C13F228831603130C139F131F1217
:1001E8009F128316031788018901831203131F08BE
:1001F8003F3940389F00C3309F052130F300F30B8F
:100208000329831203131F142130F300F30B0A2967
:1002180008000A128A11A9200A128A1105300A1246
:100228008A1150210A128A11831203138600423060
:10023800F800F80B1D29000012290A128A110C284F
:10024800F600831603138712761D2B292C293029D3
:10025800750894008715342973087504940087116C
:10026800760874048312031394000800831203139E
:100278008C1D3F294029492906080A128A1179212B
:100288000A128A11831203138C1172088A00710EE4
:100298008300FE0E7E0E0900F60076080A128A1107
:1002A80062210A128A111030F500F50B5929000055
:1002B8000A128A1170210A128A110800F4007408BF
:1002C800F300F30DF30D831203131F087306C339EC
:1002D80073069F009F140800831203130C1F7529CF
:1002E800762977290C131E080800F000700883127D
:0602F8000313930008004F
:08400000FF3FFF3FFF3FFF3FC0
:04400E00D620FF3F7A
:00000001FF
